:1000000000308A00DE2800000A108A100A118207D8
:10001000C034F934A434B034993492348234F8348E
:10002000803490342708F801260203181A2826087D
:10003000F7002628F7010830A800A60DF70D2708BD
:1000400077020318F700F80DA80B1D2808008E3062
:10005000F7002708F8002608F900FA01F808031D40
:100060003B287908F800F9010830F702F808031D69
:100070003B28F70143280310F81B4228F90DF80D1F
:10008000F7033B28F8138A110A123A2926080319A4
:10009000B628AE002A080319B628AE070318572859
:1000A0007F30AE02031CB6280319B6285B288130C6
:1000B000AE070318B6282E08F700F801F901FA0177
:1000C0002708B200B2172808B1002908B00018307C
:1000D000AE00AF01301C84282D08FA07031C7628D7
:1000E000F90A031D7628F80A0319AF172C08F90737
:1000F000031C7D28F80A0319AF172B08A800A817BE
:100100002808F8070318AF17AF0DF80CF90CFA0C14
:10011000B20CB10CB00C0310AE0B69280130F7071C
:100120000318B628F81B9B28B20DFA0DF90DF80D2F
:10013000F7030319B628B21FAC28FA0A031DAC282E
:10014000F90A031DAC28F80A031DAC28F80CF90CB9
:10015000FA0CF70A0319B6282708AF002B08AF06D8
:10016000AF1FB428F817BA28F813BA28F701F80116
:10017000F901FA018A110A124B298E30F70025087D
:10018000F7022608F9002708F800F917F7080319FD
:10019000D4280310F908031DD028F8080319D4281F
:1001A000F90CF80CF70BC928A61FDB28F809F90988
:1001B000F80A0319F90A8A110A12542903081F3987
:1001C00083002210A210FF30A300A40083161F1486
:1001D0009F141F159F1107309C0083138312031770
:1001E0008D0183168C130C1483120C080313A000CA
:1001F00083161F109F141F159F151F1383121F179F
:100200009F1783169F1383121F140030F8001F08D6
:10021000C73978049F002008A6000A30A7001220E2
:100220007808A6000A30A7001220770804202305CA
:10023000A500831686018312250886002008A600E3
:100240000A30A700122077080420A5000030A4007F
:10025000831687018312250887000730F700F70B04
:100260002F29322900001F151F193429A7011E0844
:10027000A60027287A08A9007908A8007808A7000E
:100280007708A6001430AD00AE30AC004730AB00AC
:100290007D30AA0046287A08A8007908A7007808C7
:1002A000A6007708A500BD287808A1002108463CD3
:1002B00003185D292214FF30A30021081D3C031CF4
:1002C000652922107F30A300A214221C8729A21CBA
:1002D0008729A210A00A2008633C031CA0010B0878
:1002E000F7008B1303178D010313200803178C00ED
:1002F00083168C130C1555308D00AA308D008C148C
:100300008C1880290C117708831203138B04831631
:10031000081583120819AA29831608158312081DC7
:100320008C29A0010B08F7008B1303178D01031311
:10033000200803178C0083168C130C1555308D0084
:10034000AA308D008C148C18A3290C117708831205
:1003500003138B048316081483120818D3298316F9
:1003600008148312081CAF29A0032008633C03185B
:10037000BB296330A0000B08F7008B1303178D0116
:100380000313200803178C0083168C130C155530AB
:100390008D00AA308D008C148C18CC290C11770894
:1003A000831203138B048316881483128818FA2986
:1003B000831688148312881CD829A00A2008633C5D
:1003C000031CA0010B08F7008B1303178D01031307
:1003D000200803178C0083168C130C1555308D00E4
:1003E000AA308D008C148C18F3290C117708831215
:0803F00003138B040B296300C9
:02400E00723FFF
:00000001FF
;PIC16F877A
;CRC=C2BF  CREATED="31-Oct-23 09:03"
