:100000000D308A008A2D00000A108A100A1182071A
:1000100028340C3401340634C822202AC827CE23C1
:100020002028C827CE232010000020104324C12CF4
:10003000A021C82A41104324C12C000150244F277D
:100040004710D32720183110201020100001502411
:100050004F274710D32720183210201020100001FE
:1000600050244F274710D32720183110201020107C
:10007000000150244F274710D3272018321020109A
:10008000201000004324C12CA016202C5510CC2C8D
:100090003A10A51875102000C2204F10D82A20262B
:1000A0005910CC20491DA012B13A20100000412760
:1000B000202ACF204E10A5192E186600CE23D52C4D
:1000C0002024C9224D10A5192E186600C327A0218F
:1000D000C8205910A5192E186600483084008313D3
:1000E0000008031980280630F800F701F70B76287E
:1000F000F80B75287B30F700F70B7C28800B7328F2
:1001000008004F188528871186288715A011200818
:10011000831687008312CF188F28071190280715A0
:10012000201120088316870083124F199928871001
:100130009A288714A0102008831687008312CF19ED
:10014000A3280710A428071420102008831687006E
:10015000000083120814831608100230F700F70B12
:10016000AF28B228000083120810831608108312EB
:100170000800D001A01520088316870000308312E4
:1001800087190130D004201520088316870000301D
:10019000831207190130F7000310F70D7708D00418
:1001A000A0142008831687000030831287180130BE
:1001B000F700F70DF70DFC30F7057708D004201491
:1001C0002008831687000030831207180130F700DB
:1001D000F70DF70DF70DF830F7057708D004500844
:1001E000F8000800831608100811881083120811FF
:1001F00083160811871507158714071483128814AE
:10020000831688100000831208148316081000005B
:100210008312B9207808CF00081083160810000058
:10022000831208148316081015291629000083125A
:10023000B9207808CE000810831608108312A01188
:100240002008831687008312201120088316870058
:100250008312A01020088316870083122010200824
:100260008316870083124F0EF700F030F7057708EA
:100270004E04F8007808CE00CE1F40298316FA28D5
:10028000CC08031D452908114629081583160811B5
:100290000000831288108316881000008312081053
:1002A0008316081083124D0ECE000F30CE054E0877
:1002B000CF0081204D080F39CE00CF0081200800EB
:1002C000A0112008831687008312201120088316AE
:1002D00087008312A0102008831687008312201045
:1002E000200883168700081008118810831208114F
:1002F0008316081183128810831688108312081041
:10030000831608100F308312C8006D200130B6002C
:100310003608033C031C94290330CF0081200530AC
:10032000C8006D20B60A88290230CF008120053030
:10033000C8006D20B6013608033C031CA829360806
:100340000420B700CC013708CD00F220B60A9B2963
:100350008A150A12BF2D490BAE29B1294030CA00B7
:10036000B229CA0101304802CA074A088038CB00C6
:10037000CC014B08CD00F22008004708073A0319CA
:10038000CB290B3A0319D029063A0319D829023A86
:100390000319DE29E3290130C800C900AB21E8298F
:1003A000CC010130CD00F2200230C8006D20E829D8
:1003B0000130C8000230C900AB21E829CC0110305F
:1003C000CD00F220E8290130CC004708CD00F22012
:1003D00008000B08B6008B13831603178C170C1438
:1003E00000000000801FF929831203138B17831666
:1003F000031783120C087F390319432A0313B6002D
:1004000003170D080313B70003170F080313B800F1
:100410003608C700BD21370803178D0003133808BD
:1004200003178F0003130B08B9008B1383160317F0
:100430008C170C1400000000801F232A8312031362
:100440008B178316031783120C0D0E0D7F390319BA
:10045000432A0313B60003170D080313B70003174D
:100460000F080313B8003608C700BD21370803176B
:100470008D000313380803178F008D0A03198F0AA4
:100480000313E9290317031308008E30F70045080A
:10049000F8004408F900FA01F808031D592A790800
:1004A000F800F9010830F702F808031D592AF7018E
:1004B000612A0310F81B602AF90DF80DF703592A79
:1004C000F813080080308318E106E601E7015D08B3
:1004D000E5006108E5065C080319522BE400F7000B
:1004E000600803195B2BE4020319F72A031CB52AE1
:1004F0006108EA00EA176208E9006308E800E7011A
:100500000310EA0CE90CE80CE70CE40B7F2AE51F6A
:100510008C2A66146F2B6610641066165F30840098
:100520008313842B6612E51B9F2A641CAA2AEA0CFB
:10053000E90CE80CE70CF70A03196A2BAA2AEA1B54
:10054000AD2A0310E70DE80DE90DEA0DF7030319D5
:100550006A2B9F2A6617172B66135D08E500E51FB7
:10056000B32AEA17632BEA13632B6008E400F70051
:100570005C08E4025D08EA00EA175E08E9005F082B
:10058000E800E7010310EA0CE90CE80CE70CE40BC7
:10059000C12AE51FCE2AE6146F2BE6106410E6167A
:1005A000633084008313842BE612E51BE12A641C6C
:1005B000EC2AEA0CE90CE80CE70CF70A03196A2BA1
:1005C000EC2AEA1BEF2A0310E70DE80DE90DEA0D0E
:1005D000F70303196A2BE12AE617172BE6136108C4
:1005E000E500E51FF52AEA17632BEA13632B610880
:1005F000EA00EA176208E9006308E800E51F042B37
:10060000EA1366156F2B6611E70164105F308400F2
:100610008313842BE51B2D2B5D08E500641C172B31
:10062000EA0CE90CE80CE70CF70A03196A2BE71F40
:10063000282BE80A031D282BE90A031D282BEA0AA8
:10064000031D282BEA0CE90CE80CF70A03196A2BA6
:10065000661BAC2AE61BEE2A4C2B8030EA06EA1F0A
:10066000352B6F2B6108E500422B5D08E500EA0899
:10067000031D422BE908031D422BE808031D422BF2
:10068000F701632BEA1B4C2B0310E70DE80DE90D76
:10069000EA0DF70B422B6A2BE51F502BEA17632B51
:1006A000EA13632B6008F7006108EA006208E900BA
:1006B0006308E800632B5C08F7005D08EA005E0849
:1006C000E9005F08E8006A08F8006908F9006808AE
:1006D000FA00A22BF701F801F901FA01A22BE701B8
:1006E000E809E909EA09E709E70A031D7D2BE80A99
:1006F000031D7D2BE90A0319EA0A66188B2AE618FE
:10070000CD2A6619032B322B0008E807031C8E2B19
:10071000E90A031D8E2BEA0A0319641484030008F6
:10072000E907031C962BEA0A0319641484030008E2
:10073000801F803AEA0703186414661A922AE61AA0
:10074000D42A0A2B08005C080319682CE80060080A
:100750000319682CE802031CB22B7F30E80703184A
:10076000682CB82B8130E802031C682C0319682C14
:100770006808F700F801F901FA01E7015D08E600F1
:10078000E6175E08E5005F08E4001930E80063083A
:10079000E4020318DB2B0130E5020318DB2BE60231
:1007A0000318DB2BE7020318DB2BE70AE60AE50A4E
:1007B0006308E4070D2C6208E5020318F62B0130EC
:1007C000E6020318F62BE7020318F62BE70AE60AFF
:1007D0006208E5076308E407031C0D2CE50A031D06
:1007E0000D2CE60A031D0D2CE70A0D2C610880383C
:1007F000E60203180C2C0130E70203180C2CE70A60
:1008000061088038E6076208E507031CEA2BE60A60
:10081000031DEA2BE70AEA2B7A14E80B102C1B2C99
:100820000310E40DE50DE60DE70D0310FA0DF90DCB
:10083000F80DE90DC72B691C232C0310F80CF90CDB
:10084000FA0CE90C262CF7030319682CE91B4F2C32
:100850000310E40DE50DE60DE70D6308E40203184F
:100860003B2C0130E50203183B2CE60203183B2C1D
:10087000E702031C5E2C6208E5020318462C0130D7
:10088000E6020318462CE702031C5E2C6108803840
:10089000E60203184F2C0130E702031C5E2CFA0A13
:1008A000031D5E2CF90A031D5E2CF80A031D5E2C45
:1008B000F70A0319682CF80CF90CFA0C5D08E8002B
:1008C0006108E806E81F662CF8176C2CF8136C2CEE
:1008D000F701F801F901FA0108008E30F700440829
:1008E000F7024508F9004608F800F917F708031958
:1008F000842C0310F908031D802CF8080319842C9C
:10090000F90CF80CF70B792CC51F8B2CF809F90999
:10091000F80A0319F90A0800C301C201C101C001A4
:10092000BF013F08633C031CC22CA630F700F70B45
:10093000972C00009F149F189B2C1E08FA0083160A
:100940001E088312C4001E08C500452283104308F8
:10095000DF004208DE004108DD004008DC007A08C4
:10096000E3007908E2007808E1007708E0006222FD
:100970007A08C3007908C2007808C1007708C0006F
:10098000BF0A912C4308DF004208DE004108DD0069
:100990004008DC00E301E2014830E1008530E0007E
:1009A000A3237A08C7007908C6007808C50077082D
:1009B000C4006D24790808008318E12C4F308400AE
:1009C0008313F701F801F901FA01CF01D001D10138
:1009D000D2014E084D044C044B0403191F2D203046
:1009E000D3000310C70DC80DC90DCA0DCF0DD00D12
:1009F000D10DD20D4E085202031D082D4D08510293
:100A0000031D082D4C085002031D082D4B084F02F2
:100A1000031C192D4B08CF024C08031C4C0FD002AD
:100A20004D08031C4D0FD1024E08031C4E0FD2027D
:100A30000314F70DF80DF90DFA0DD30BF12C4F0837
:100A40008000840A50088000840A51088000840ACB
:100A50005208800008005908E0005D08E006E01F29
:100A6000362D03110310D91B0314692D5908E0001A
:100A70005C08E1005808E1020319442DE01F692DCC
:100A80000308013A8300692D5D08E1005908E1027D
:100A90000319502DE01F692D0308013A8300692DC9
:100AA0005E08E1005A08E10203195C2DE01F692D80
:100AB0000308013A8300692D5F08E1005B08E10249
:100AC0000319682DE01F692D0308013A8300692D81
:100AD0000310080058080319DA2DE0005C08031918
:100AE000DA2DE00703187B2D7F30E002031CDA2D9E
:100AF0000319DA2D7F2D8130E0070318DA2D600805
:100B0000F700F801F901FA015908E400E4175A085E
:100B1000E3005B08E2001830E000E101621CA82D50
:100B20005F08FA07031C9A2DF90A031D9A2DF80A8B
:100B30000319E1175E08F907031CA12DF80A031930
:100B4000E1175D08DA00DA175A08F8070318E11709
:100B5000E10DF80CF90CFA0CE40CE30CE20C0310B8
:100B6000E00B8D2D0130F7070318DA2DF81BBF2D90
:100B7000E40DFA0DF90DF80DF7030319DA2DE41F52
:100B8000D02DFA0A031DD02DF90A031DD02DF80A25
:100B9000031DD02DF80CF90CFA0CF70A0319DA2D05
:100BA0005908E1005D08E106E11FD82DF817DE2D98
:100BB000F813DE2DF701F801F901FA0108008E3073
:100BC000F7005908F8005808F900FA01D91FED2D6F
:100BD000F809F909F90A0319F80AF808031DFA2DAA
:100BE0007908F800F9010830F702F808031DFA2D1A
:100BF000F701032E0310F81B012EF90DF80DF70372
:100C0000FA2DD91FF81308000030F8001F08C33967
:100C100078049F008C247908FA007808FF3CF700DC
:100C20007908031C790F162E0330172E033CFA00A7
:100C30007708C4007A08C50045227A08A40079081C
:100C4000A3007808A2007708A1002408C7002308A1
:100C5000C6002208C5002108C4006D247908C00020
:100C60007808BF004008C2003F08C1008A15002074
:100C70008A117A08A4007908A3007808A2007708EE
:100C8000A1000430F8001F08C33978049F008C24A9
:100C90007908FA007808FF3CF7007908031C790FFF
:100CA000532E0330542E033CFA007708C4007A0810
:100CB000C50045227A08A9007908A8007808A7008D
:100CC0007708A6002908C7002808C6002708C5001D
:100CD0002608C4006D247908C0007808BF004008C9
:100CE000C2003F08C1008A1500208A117A08A900B5
:100CF0007908A8007808A7007708A60008000B0864
:100D0000BB008B13831603178C170C140000000014
:100D1000841F8F2E831203138B1783160317031858
:100D2000C42E83120C087F390313BB0003170D0870
:100D30000313BC0003170F080313BD003B08C700D3
:100D4000BD213C0803178D0003133D0803178F00D6
:100D500003130B08BE008B13831603178C170C1498
:100D600000000000841FB92E831203138B17831613
:100D7000031783120313BA0BBE2EC12E831603175B
:100D8000C42EE32E8316031783120C0D0E0D7F392C
:100D90000313BB0003170D080313BC0003170F0850
:100DA0000313BD003B08C700BD213C0803178D009D
:100DB00003133D0803178F008D0A03198F0A0310D0
:100DC0000313BA0B7F2E08000408BF003E08C100C1
:100DD0000319032F3D08DB003C08DA003B08D9006B
:100DE0003A08D800DF01DE012030DD008230DC006F
:100DF0006A257A08BD007908BC007808BB0077082E
:100E0000BA00C10BEA2E3D08CA003C08C9003B08E5
:100E1000C8003A08C7004708B63CC700FA014808AE
:100E2000CB00C8170310C80CC90CCA0CFA0CF90C7B
:100E3000F80CF70CC70B122FCB1F292FF709F80955
:100E4000F909FA09F70A0319F80A0319F90A031943
:100E5000FA0A7A08BD007908BC007808BB00770858
:100E6000BA00BD1F402FBF03BF16BA09BB09BC099A
:100E7000BD09BA0A0319BB0A0319BC0A0319BD0A42
:100E80003B30C6009A30C500CA30C400C3010A30E6
:100E9000C1003E080319BF0A83143A30840083134B
:100EA0003D08CA003C08C9003B08C8003A08C70012
:100EB0004608CE004508CD004408CC004308CB00CE
:100EC000DC247808F708031D782F3E0A4102031935
:100ED000782F3F0803197A2F0F3941020319722F17
:100EE0000318AA2FBF1BAA2F3F1B7A2F2030A62F33
:100EF0002030BF05BF1E882FBF123E08031DBF0351
:100F00007708BF002D30C700BD213F08F700BF01A3
:100F10003E084102031D962F7708BF002E30C70000
:100F2000BD213F08F7002030BF0500303030BF1E24
:100F3000A62FBF123E08031DBF037708BF002D3048
:100F4000C700BD213F08F700BF013030F707770821
:100F5000C700BD2183104608CA004508C9004408DF
:100F6000C8004308C700CE01CD01CC010A30CB0038
:100F7000DC247A08C6007908C5007808C400770820
:100F8000C300C10B4C2F0800BD01BC013D083B0252
:100F9000031CE92F031DD02F3A083C020318E92F48
:100FA000BE013E08313C031CDD2F0A30C8006D2015
:100FB0008A1549238A11BE0AD12F04268A15F622E2
:100FC0008A112518E42FA51AE92FBC0A0319BD0AB6
:100FD000C62F08003A08F80139020318F22F390821
:100FE000F700FE2FF7010830BB00B90DF70D3A08E6
:0E0FF00077020318F700F80DBB0BF52F080071
:101000008310CA019C30C9001830C800F030C700F6
:10101000CE01CD014208CC004108CB008A11DC246E
:101020008A157A08C6007908C5007808C4007708D0
:10103000C30010304302F7004408F8002730031CB7
:101040002830F8024508F9000030031C0130F9028D
:101050004608FA000030031C0130FA027A08C60084
:101060007908C5007808C4007708C300B630F700D7
:10107000FA01F901F8014308440445044604031D3C
:101080004328F70150280310F81B4F28C30DC40D47
:10109000C50DC60DFA0DF90DF80DF70B4328F81321
:1010A0007A08B1007908B0007808AF007708AE0080
:1010B0003108C6003008C5002F08C4002E08C30040
:1010C0004608CA004508C9004408C8004308C700CC
:1010D0004A08DB004908DA004808D9004708D80068
:1010E000DF01DE01DD017F30DC008A112B258A154E
:1010F0000319192AD9014730D800580884008313EE
:10110000591883177E30800083144A08DF0049088D
:10111000DE004808DD004708DC00E301E201E101F0
:101120007F30E0008A1162228A157A08DB00790894
:10113000DA007808D9007708D80083104A08DF0061
:101140004908DE004808DD004708DC00E301E20151
:10115000E1017F30E0008A1162228A155B08DF001E
:101160005A08DE005908DD005808DC007A08E30060
:101170007908E2007808E1007708E0008A11A323EB
:101180008A157A08CA007908C9007808C800770863
:10119000C7004A08DB004908DA004808D9004708B8
:1011A000D8004A08DF004908DE004808DD0047088B
:1011B000DC008A116A258A157A08D6007908D500DC
:1011C0007808D4007708D3009930DB004730DA0084
:1011D0008A30D9007F30D8005608DF005508DE007D
:1011E0005408DD005308DC008A116A258A157A0844
:1011F000DB007908DA007808D9007708D800831076
:101200007A08DF007908DE007808DD007708DC0066
:10121000E301E201E1018030E0008A1162228A15D7
:101220007A08CE007908CD007808CC007708CB008A
:101230004C30DB00F330DA003A30D9007B30D80094
:101240005608DF005508DE005408DD005308DC00B6
:101250008A116A258A157A08DB007908DA0078088D
:10126000D9007708D80083107A08DF007908DE00FB
:101270007808DD007708DC002B30E3009D30E200C9
:10128000DF30E1007E30E0008A1162228A157A08A0
:10129000D2007908D1007808D0007708CF00520832
:1012A000DB005108DA005008D9004F08D800560872
:1012B000DF005508DE005408DD005308DC008A1109
:1012C0006A258A157A08DB007908DA007808D900DF
:1012D0007708D80083107A08DF007908DE007808E4
:1012E000DD007708DC00E301E201E1017F30E0008E
:1012F0008A1162228A157A08D2007908D10078080A
:10130000D0007708CF004A08DB004908DA00480817
:10131000D9004708D8004E08DF004D08DE004C0811
:10132000DD004B08DC008A116A258A157A08DB008B
:101330007908DA007808D9007708D8007A08DF0041
:101340007908DE007808DD007708DC005208E30049
:101350005108E2005008E1004F08E0008A11A32381
:101360008A157A08CE007908CD007808CC00770875
:10137000CB00D9014330D800580884008313591892
:1013800083177E300002D700D71FD9295708003CA9
:10139000D901D800D81BD9038A11DF258A1577080F
:1013A000CF007808803AD0007908D1007A08D200BE
:1013B000E929D9015708D800D81BD9038A11DF259C
:1013C0008A157A08D2007908D1007808D000770809
:1013D000CF005208DB005108DA005008D9004F084E
:1013E000D8001830DF007230DE003130DD007E3092
:1013F000DC008A116A258A1583104E08DF004D082B
:10140000DE004C08DD004B08DC007A08E3007908B8
:10141000E2007808E1007708E0008A1162228A156C
:101420007A08CE007908CD007808CC007708CB0088
:101430001D2ACE01CD01CC01CB014B08F7004C0891
:10144000F8004D08F9004E08FA007A08B50079084E
:10145000B4007808B3007708B2007330DB007F3047
:10146000DA007530D9007230D8003508DF00340852
:10147000DE003308DD003208DC008A116A258A1597
:101480008310EB30DF00FF30DE001330DD007530FD
:10149000DC007A08E3007908E2007808E1007708C8
:1014A000E0008A1162228A157A08C6007908C50010
:1014B0007808C4007708C3005930DB004730DA00F1
:1014C0003C30D9006730D8003508DF003408DE0032
:1014D0003308DD003208DC008A116A258A157A0893
:1014E000CA007908C9007808C8007708C7004A0808
:1014F000DB004908DA004808D9004708D800350859
:10150000DF003408DE003308DD003208DC008A1119
:101510006A258A157A08CA007908C9007808C800BF
:101520007708C7004A08DB004908DA004808D900F4
:101530004708D8003508DF003408DE003308DD0036
:101540003208DC008A116A258A1583104608DF00FC
:101550004508DE004408DD004308DC007A08E300AB
:101560007908E2007808E1007708E0008A11622239
:101570008A15DF01DE01DD017F30DC007A08E3003F
:101580007908E2007808E1007708E0008A11A323D7
:101590008A157A08B5007908B4007808B30077088E
:1015A000B20083143508DF003408DE003308DD00A4
:1015B0003208DC003330E3009330E2000830E10011
:1015C0008730E0008A1162228A157A08B50079080E
:1015D000B4007808B3007708B2003208F700330887
:1015E000F8003408F9003508FA000800DB01DA01D8
:1015F0000C30D9008530D8002408DF002308DE0035
:101600002208DD002108DC008A112B258A15031C25
:101610001B2B2519182B8316061183120615A519E5
:10162000182BA01220088316870083128716251610
:10163000A51425141F2B251D1F2B2511A510DB011B
:10164000DA010C30D9008530D8002908DF002808DD
:10165000DE002708DD002608DC008A112B258A150C
:10166000031C442BA51B412B831686108312861462
:101670002A18412BA0122008831687008312871690
:10168000AA142517A516482BA51F482BA51325130B
:1016900008002A1DC32B20162008831687008312FA
:1016A000071A712B2A11251E5C2BA0122008831605
:1016B000870083128712A515A51D622B2518622BA2
:1016C000A5112512AA1C6B2BA012200883168700D7
:1016D000831287122A142A1C712BA51A712B2A1027
:1016E000AA108316881583128819C22B2A11AB08F9
:1016F000031D9D2BA5102510F62225198D2B2515D0
:101700008316061183120611A01220088316870083
:1017100083128712A51125128E2B2511A5189D2B3A
:1017200025118316061183120611A01220088316B4
:10173000870083128712A51125122B0BC22B2513AC
:10174000A512F622A51BB22BA517831686108312AD
:101750008610A012200883168700831287122A1091
:10176000AA10B32BA513251BC22BA5138316861015
:1017700083128610A0122008831687008312871216
:101780002A10AA10CF2B2016200883168700831258
:10179000071ECF2B83168815831288192A15080077
:1017A0000130C8000230C9008A11AB218A153908FE
:1017B000DB003808DA003708D9003608D800DF0126
:1017C000DE014830DD008430DC008A112B258A15CB
:1017D000031C052C573003178D0000308F000310B9
:1017E00008300313BA008A117F268A15023084005C
:1017F0003908BD003808BC003708BB003608BA00FD
:10180000BE018A11E4268A15982C3908DB003808B5
:10181000DA003708D9003608D800DF01DE010C30C5
:10182000DD008530DC008A112B258A15031C512C24
:101830005E3003178D0000308F0003100A30031351
:10184000BA008A117F268A15023084003908BD004B
:101850003808BC003708BB003608BA00BE018A1140
:10186000E4268A15A01220088316870083128716A3
:10187000BB010130BA008A11C4278A15BB010130AF
:10188000BA008A11C4278A15BB010130BA008A1137
:10189000C4278A15A0122008831687008312871296
:1018A000982CDB01DA010C30D9008530D8003908DA
:1018B000DF003808DE003708DD003608DC008A115A
:1018C0002B258A150318662C031D982C66300317E8
:1018D0008D0000308F00031008300313BA008A1106
:1018E0007F268A15023084003908BD003808BC0004
:1018F0003708BB003608BA00BE018A11E4268A15F3
:10190000BB010130BA008A11C4278A15BB0101301E
:10191000BA008A11C4278A15BB010130BA008A11A6
:10192000C4278A15BB010130BA008A11C4278A1561
:10193000DF30C7008A11BD218A154330C7008A11E4
:10194000BD218A152030C7008A11BD218A1520309B
:10195000C7008A11BD218A152030C7008A11BD2118
:101960008A15080078083708B9006430BA008A116F
:10197000EA278A157708B70078083030031DC72C8E
:10198000B81CD02CB819D02C381A2030CA2CB81159
:1019900038123814F8077808C7008A11BD218A1553
:1019A0003708B9000A30BA008A11EA278A15770881
:1019B000B70078083030031DE32CB819E92C381C27
:1019C000E92C381A2030F8077808C7008A11BD21A1
:1019D0008A153030B7073708C7008A11BD218A152C
:1019E0000800BA01B9013A083802031C1C2D031D76
:1019F000FD2C3708390203181C2DBB013B08273C7E
:101A0000031C0A2D0A30C8008A116D208A1549234B
:101A1000BB0AFE2C8A1104268A15F6222518132DDE
:101A2000AB080319172DA51A182D2B0B182D1C2DDB
:101A3000B90A0319BA0AF32C08002519222DAB089C
:101A40000319262DA51B532D2B0B532D0630B60045
:101A5000B6080319532D0130C8000230C9008A119D
:101A6000AB218A15423003178D0000308F00031020
:101A70000E300313BA008A117F268A153608B70084
:101A80001830B800B2242030C7008A11BD218A1551
:101A90002030C7008A11BD218A15B8010230B70075
:101AA000F124B603282D251D582DAB0803195C2DF4
:101AB000A51F892D2B0B892D0630B600B6080319FA
:101AC000892D0130C8000230C9008A11AB218A1566
:101AD0004C3003178D0000308F0003100F300313BC
:101AE000BA008A117F268A153608B7001830B80068
:101AF000B2242030C7008A11BD218A152030C700CA
:101B00008A11BD218A15B8010230B700F124B6034D
:101B10005E2D080003081F398300FF30A000251048
:101B2000A5102511A5112512A5122513A5132A10FC
:101B3000AA10AB012A11831603170908C0398900BE
:101B400003131F129F1200300317880083128701AE
:101B500088018901831383160908C039890003139A
:101B60001F129F123F3003178800831203131F17A1
:101B70009F1783169F1783121F148A1160298A15D5
:101B80000130C800C9008A11AB218A150C30031737
:101B90008D0000308F008A110313E9218A1501306E
:101BA000C8000230C9008A11AB218A15153003170D
:101BB0008D0000308F008A110313E9218A15063049
:101BC000B600FA30C8008A116D208A15B60BE12DD7
:101BD000A01220088316870083128712831606112D
:101BE0008312061183168610831286108A1104262A
:101BF0008A152518392EA51A392E0130C800C900BA
:101C00008A11AB218A151E3003178D0000308F001A
:101C10008A110313E9218A152408B9002308B800A2
:101C20002208B7002108B600D023BB010630BA0055
:101C30008A11C4278A150130C800C9008A11AB2156
:101C40008A15273003178D0000308F008A11031387
:101C5000E9218A152908B9002808B8002708B70023
:101C60002608B600D023BB010630BA008A11C4276B
:101C70008A1525183D2EA51E832EAB010130C80004
:101C8000C9008A11AB218A15303003178D0000304E
:101C90008F008A110313E9218A15A51C512E1D25D9
:101CA000602E2408B9002308B8002208B7002108D4
:101CB000B600D023BB010630BA008A11C4278A15AA
:101CC0000130AB00C800C9008A11AB218A15393038
:101CD00003178D0000308F008A110313E9218A1544
:101CE000251F742E1D25832E2908B9002808B80049
:101CF0002708B7002608B600D023BB010630BA007B
:0A1D00008A11C4278A15F62D63002E
:04400E00E22FFF3F5F
:00000001FF
;PIC16F887
;CRC=E16C  CREATED="30-Oct-23 15:57"
